:020000040800F2
:10000000C00C00204902000843310008292D0008D7
:10001000413100083F040008C93D0008000000000D
:10002000000000000000000000000000D5350008BE
:100030002D050008000000004531000823360008A7
:1000400063020008630200086302000863020008FC
:1000500063020008630200086302000863020008EC
:1000600063020008630200086302000863020008DC
:10007000410400084D040008630200085904000808
:1000800063020008650400086302000863020008B8
:1000900063020008630200086302000863020008AC
:1000A00063020008D13600086302000863020008FA
:1000B000630200086302000863020008630200088C
:1000C000630200086302000863020008753100083B
:1000D000630200086302000863020008630200086C
:1000E000630200086302000863020008630200085C
:1000F000630200086302000863020008630200084C
:10010000630200086302000863020008630200083B
:10011000B1390008630200086302000863020008A6
:10012000710400086302000863020008630200080B
:10013000630200086302000863020008630200080B
:1001400063020008630200086302000863020008FB
:100150007D040008630200086302000863020008CF
:1001600063020008630200086302000863020008DB
:100170006302000863020008630200080000000038
:10018000630200086302000800F002F800F04CF877
:100190000AA090E8000C82448344AAF10107DA45E2
:1001A00001D100F041F8AFF2090EBAE80F0013F0E8
:1001B000010F18BFFB1A43F001031847E447000082
:1001C000044800000A4410F8014B14F00F0508BF62
:1001D00010F8015B240908BF10F8014B6D1E05D013
:1001E00010F8013B6D1E01F8013BF9D1641E03D0EC
:1001F000641E01F8015BFBD19142E4D3704700001B
:100200000023002400250026103A28BF78C1FBD81F
:10021000520728BF30C148BF0B6070471FB504F0BC
:10022000A9FB1FBD10B510BD00F0CFF81146FFF7B8
:10023000F5FF03F0DBFD00F0EDF803B4FFF7F2FF8C
:1002400003BC00F0F5F80000094880470948004762
:10025000FEE7FEE7FEE7FEE7FEE7FEE7FEE7FEE776
:10026000FEE7FEE704480549054A064B70470000D3
:10027000C136000889010008C0060020C00C00201B
:10028000C0080020C008002053EA020C00F069807A
:100290002DE9F04B4FF00006002B1FBFB3FA83F59A
:1002A00003FA05F424FA05F65E4012BF1643B2FACB
:1002B00082F502FA05F4C5F120051EBF22FA05FCFD
:1002C00044EA0C04203556EA044C4FEA144418BFA3
:1002D000641C4FF000084FF00009904271EB030CD2
:1002E00039D3002919BFB1FA81F701FA07F6B0FA3C
:1002F00080F700FA07F6C7F120071EBF20FA07FCB7
:1003000046EA0C062037B6FBF4FCA7EB0507103FC6
:1003100007F01F0BCBF120060CFA0BFB2CFA06F6AC
:1003200044BFB3460026202FA4BF5E464FF0000B0B
:100330005BEA060C08BF4FF0010B19EB0B09ABFB96
:10034000027C48EB0608C01B06FB02CC0BFB03CC6F
:1003500071EB0C01C1E70B46024641464846BDE839
:10036000F08B13B54FF000004FF00001AFF30080A9
:10037000BDE81C4070474FF0000200B5134694469C
:100380009646203922BFA0E80C50A0E80C50B1F1ED
:100390002001BFF4F7AF090728BFA0E80C5048BF01
:1003A0000CC05DF804EB890028BF40F8042B08BF9F
:1003B000704748BF20F8022B11F0804F18BF00F89B
:1003C000012B7047704770477047754600F02CF856
:1003D000AE4605006946534620F00700854618B032
:1003E00020B5FFF73FFFBDE820404FF000064FF07B
:1003F00000074FF000084FF0000B21F00701AC465A
:10040000ACE8C009ACE8C009ACE8C009ACE8C00978
:100410008D46704710B50446AFF300802046BDE816
:100420001040FFF70ABF0000004870475C0600203C
:1004300001491820ABBEFEE7260002007047FEE728
:10044000014800F0D1B80000DC040020014800F0B1
:10045000CBB800009C050020014800F0C5B80000A2
:10046000FC050020014800F0BFB800003C0500205A
:10047000014800F0B9B800001C040020014800F059
:10048000B3B800007C04002001681823CAB2103AF7
:10049000B2FBF3F2054B6FF30901032A9B5CC365C2
:1004A00000D9091D8165084670470000964900087B
:1004B00010B5014600208B698A6A4FF0C07453B1B1
:1004C000B3F5005F15D072B1012A0CD0022A0AD010
:1004D000032A09D104E01AB1012A06D0022A03D165
:1004E000C96AC90100D5012010BDC96AA142FAD06C
:1004F00010BD002AF7D0012AF2D0022AF3D0032A35
:10050000F3D010BD30B50468256825F4802525603A
:10051000046863608368402B036803D099600068B7
:10052000C26030BD9A600068C16030BD704772B66D
:10053000FEE72DE9F0410446876D00F0D7FA064644
:1005400094F835000025022806D08020606584F8E4
:1005500034500120BDE8F0812068016821F01601C7
:1005600001602068416921F080014161206C08B977
:10057000A06C20B12068016821F0080101602068AA
:10058000016821F0010101600CE000F0AFFA801B6E
:10059000052807D920206065032084F8350084F8F9
:1005A0003450D7E720680068C007EED194F85C109B
:1005B0003F208840B860012084F8350084F834502A
:1005C0000020C7E790F83510022903D0802141654B
:1005D00001207047052180F835100068016821F07E
:1005E00001010160002070472DE9F84304464FF0F7
:1005F0000009CDF8009063484FF41651A56D0068CE
:10060000B0FBF1F72E6894F85C10082000FA01F1B5
:1006100031420FD021680A6852070BD50A6822F0D0
:1006200004020A6094F85C108840A860606D40F095
:100630000100606594F85C104FF0010808FA01F0C1
:10064000304208D021684969090604D5A860606D68
:1006500040F00200606594F85C100420884030424D
:1006600008D021680968890704D5A860606D40F04A
:100670000400606594F85C1010208840304218D067
:1006800021680968090714D5A86020680168490332
:1006900004D50068000308D5A16C07E00168C9050E
:1006A00003D4016821F008010160216C09B12046E2
:1006B000884794F85C1020208840304231D021686F
:1006C0000968C9062DD5A86094F83500052820686A
:1006D000016806D0490347D5006800031DD4616C4A
:1006E0001CE021F0160101602068416921F08001C1
:1006F0004161206C08B9A06C20B12068016821F02C
:100700000801016094F85C103F208840A86084F8DC
:10071000358084F83490216D1FE0E16B09B12046EB
:100720008847606D00282BD0606DC00714D005206D
:1007300084F835002068016821F00101016000980B
:10074000401C0090B84203D820680068C007F6D16A
:1007500084F8358084F83490E16C002910D001B021
:100760002046BDE8F04308470168C905D5D40168B3
:1007700021F01001016084F8358084F83490CCE7D2
:10078000BDE8F883300100202DE9F041044600F077
:10079000ADF906465CB1022084F83500002584F8E6
:1007A00034502068016821F0010101600DE0012052
:1007B000BDE8F08100F09AF9801B052805D92020BA
:1007C0006065032084F83500F2E720680068C00700
:1007D000F0D12268116820480140D4E90103184390
:1007E000D4E903363343184363691843A3691843B4
:1007F000E3691843236A18430843616A042903D153
:10080000D4E90B1319430843106020684069666AF5
:1008100020F0070130460E43012704280CD1A06ABE
:100820000643E06A40B12046FFF742FE20B1402077
:10083000606584F83570BAE7206846612046FFF7A6
:1008400023FE94F85C203F2191408160656584F827
:1008500035700020ACE700003F8010F02DE9F0413A
:100860000446866D90F83400002501280DD0012043
:1008700084F8340094F835700020012F07D084F8F4
:10088000340002252846BDE8F0810220FBE702275C
:1008900084F8357060652046FFF734FE94F85C10EC
:1008A0003F208840B0602068016841F01601016077
:1008B000206C20B12068016841F0080101602068C7
:1008C000016841F001010160DCE7000070B50446F9
:1008D00000F00CF90546601C02D00448007804447E
:1008E00000F004F9401BA042FAD370BD340100208F
:1008F0002DE9F84FDFF8BCA10022012503264FF0B7
:100900000F090AF1040BAAF1040E00BF0B6805FAE7
:1009100002F42340A34270D10F7907F00307012F9F
:1009200001D0022F16D187684FEA420806FA08FC68
:1009300027EA0C07D1F80CC00CFA08FC4CEA070CAB
:10094000C0F808C04768A7430C79C4F3001494406A
:100950003C4344600C79E443A4070AD0C4684FEADE
:10096000420C06FA0CF7BC438F6807FA0CF72743D2
:10097000C7600C7904F00304022C12D1D40800EBF8
:10098000840CDCF820405707FF0E09FA07F824EA28
:100990000804D1F8108008FA07F848EA0408CCF8EF
:1009A000208004684FEA420C06FA0CF7BC430F792A
:1009B00007F0030707FA0CF7274307604C6814F4A5
:1009C000403F70D03C4C276847F48047276024683C
:1009D00022F0030704F480440094384C07EB040C25
:1009E000DCF8084897074FEA177809FA08F7BC437C
:1009F000334FB84202D1002724E054E0314FB842CF
:100A000001D101271EE0304FB84201D1022719E081
:100A10002E4FB84201D1032714E02D4FB84201D127
:100A200004270FE02B4FB84201D105270AE02A4FD7
:100A3000B84201D1062705E0284FB84201D1072767
:100A400000E0082707FA08F72743CCF80878DAF817
:100A500000405746D1F804C09C435FEACC2C00D537
:100A60001C433C60DBF800405F46D1F804C09C4367
:100A70005FEA8C2C00D51C433C60DEF800407746D2
:100A8000D1F804C09C435FEA8C3C00D51C433C6019
:100A9000084F083F3C68D1F804C09C435FEACC3C57
:100AA00000D51C433C60521C102AFFF42FAFBDE858
:100AB000F88F0000083C01404438024000300140FB
:100AC000000002400004024000080240000C024006
:100AD000001002400014024000180240001C0240B6
:100AE0000AB1816170470904FBE700000148806892
:100AF00070470000340100200248816802781144E8
:100B000081607047340100200B4810B5016841F442
:100B100000710160016841F480610160016841F485
:100B200080710160032000F06FF80F2000F006F8DC
:100B300000F024F8002010BD003C024070B50D4DBF
:100B400004464FF47A712878B1FBF0F00A4909683D
:100B5000B1FBF0F000F0BAFE48B9102C07D2002229
:100B60002146501E00F030F800206C6070BD01205E
:100B700070BD000034010020300100200A4808B593
:100B8000016841F480410160006800F480400090F9
:100B90000548001F016841F080510160006800F0C5
:100BA0008050009008BD000044380240002809DB56
:100BB00000F01F02012191404009800000F1E02077
:100BC000C0F8001170470000F0B40E4B1B680C46D3
:100BD000C3F30223C3F10705042D00D90425191D11
:100BE000072901D2002300E0DB1E012606FA05F1E9
:100BF000491E214099409E40761E16403143F0BC6C
:100C000003F0E3B80CED00E0064900F007020868C5
:100C10004FF6FF03184040EA0220034A10430860E1
:100C2000704700000CED00E00000FA052DE9F047E8
:100C30000E46050065D0DFF81481D8F80000F7B241
:100C400000F00700B04207D288F80070D8F8000022
:100C500000F00700B04254D128683D4C810712D5FE
:100C6000400703D5206840F4E05020602878000752
:100C700003D5206840F4604020602068A96820F017
:100C8000F000084320602878C0072DD030496868FC
:100C90000839012812D0022813D0032811D009687E
:100CA000890700292DDA216821F003010143216021
:100CB000FFF71CFF814641F2883A0EE0096889037C
:100CC000EFE709688901ECE7FFF710FFA0EB0901E6
:100CD000514502D90320BDE8F0872068696800F01B
:100CE0000C00B0EB810FEFD1D8F80010404601F0B6
:100CF0000701B14207D90770006800F00700B04251
:100D000001D00120E7E72878400705D52068E96889
:100D100020F4E050084320602878000706D52068BA
:100D2000296920F4604040EAC100206000F038F8F2
:100D30002168084AC1F30311515CC84006490860A4
:100D400006480068FFF7FAFE0020C4E7003C0240B6
:100D5000083802407E490008300100203801002098
:100D60000448054900680968044AC1F38221515CBE
:100D7000C840704730010020083802408E49000802
:100D80000448054900680968044AC1F34231515CCE
:100D9000C840704730010020083802408E490008E2
:100DA000154810B5006810F00C02144813D041101B
:100DB000042A0FD0082A0ED10F4C241F2268236862
:100DC00002F03F025B0207D52068C0F38810A0FB49
:100DD000010106E0084610BD2168C1F38811A1FB9E
:100DE00000010023FFF750FA2168C1F30141491CBB
:100DF0004900B0FBF1F010BD083802400024F400B7
:100E00002DE9F84F04006ED02078DFF84C93C0072E
:100E1000A9F104054AD009F104000168C1F3810178
:100E2000012908D00068C0F3810002280AD1D9F84E
:100E30000000400206D52868800337D56068002886
:100E4000E1D033E06068B0F5803F10D0B0F5A02F5E
:100E5000286810D020F480302860286820F4802092
:100E600028606068A8B1FFF741FE06460DE02868DB
:100E700040F48030F4E740F480202860F7E700BFBA
:100E8000FFF734FE801B642873D828688003F7D5E9
:100E90000CE0FFF72BFE064605E000BFFFF726FE3D
:100EA000801B6428F0D828688003F7D42078DFF806
:100EB000AC8280074FF0000A3ED5A748001D0168AC
:100EC00011F00C0F08D00068C0F3810002280BD18C
:100ED000D9F80000400207D42868800716D5E068DA
:100EE000012800D112E033E1E068B8B10120C8F870
:100EF0000000FFF7FBFD064605E000BFFFF7F6FD2B
:100F0000801B0228C0D828688007F7D52868216987
:100F100020F0F80040EAC10028600DE0C8F800A009
:100F2000FFF7E4FD064604E0FFF7E0FD801B022822
:100F30001FD828688007F7D42078000722D5864F6D
:100F400087486169703771B101210160FFF7CEFDFB
:100F5000064604E0FFF7CAFD801B022809D838685E
:100F60008007F7D50EE0C0F800A0FFF7BFFD0646EA
:100F700005E082E0FFF7BAFD801B02287DD83868C3
:100F80008007F7D42078400768D5DFF8CCB1002778
:100F90000BF13C0BDBF80000C0000BD4DBF80010B9
:100FA00041F08051CBF80010DBF80000012700F081
:100FB000805000906B4E3068C00510D4306840F40B
:100FC00080703060FFF792FD009005E0FFF78EFD26
:100FD0000099401A022850D83068C005F6D55E4EF8
:100FE000A0686C3601280FD00528306810D020F09A
:100FF00001003060306820F004003060A068B8B1B3
:10100000FFF774FD00900FE0306840F00100F4E756
:1010100040F004003060F7E7FFF768FD0099411ADF
:1010200041F28830814266D830688007F4D50EE0FE
:10103000FFF75CFD009007E0FFF758FD0099411AAB
:1010400041F28830814256D830688007F4D42FB1FD
:10105000DBF8001021F08051CBF80010A069C8B374
:101060003D49091D0968C1F3810102294AD00228BE
:10107000504607D0C8F8600000E03CE0FFF736FDBE
:1010800004463BE04746C8F86000FFF72FFD0646E0
:1010900005E000BFFFF72AFD801B02282BD8286837
:1010A0008001F7D4D4E907010843A16A2E4A490810
:1010B00002EB0141626A41EA8211084394F82C1064
:1010C00040EA0161C9F8001001203866FFF70EFD03
:1010D000044606E03EE000BFFFF708FD001B0228C3
:1010E00009D828688001F7D534E000BFFFF7FEFC7F
:1010F000001B022802D90320BDE8F88F2868800170
:10110000F4D427E00128F7D0D9F80000E26900F410
:10111000800191421CD1226A00F03F01914217D117
:1011200047F6C071626A0140B1EB821F10D1A26A1A
:101130004FF0FF3300F4403103EB5202B1EB024FAA
:1011400006D194F82C1000F07060B0EB016F01D064
:101150000120D1E70020CFE70438024000004742D9
:10116000800E4742007000400000FFFF7047000003
:1011700038B5016804464A688868C043430606D506
:10118000C30704D1D3435B0601D4216C05E0830778
:1011900008D4D3431B0605D4616C01B02046BDE8DA
:1011A00030400847830603D5430601D5C30551D413
:1011B000D3439B064ED443060AD494F85130032BF4
:1011C00049D0636D43F004036365CB688B6800937B
:1011D000830609D4636D43F0010363658B68009354
:1011E0000B6823F040030B60C00506D4606D40F02F
:1011F00008006065206880680090606D002829D034
:101200002068416821F0E0014160012084F851002C
:10121000900701D4D00722D02068416821F0030153
:101220004160114DE06C40B10565E06CFFF7CAF913
:1012300018B1606D40F040006065A06C002809D0D6
:101240000565A06CFFF7BEF9002803D0606D40F083
:101250004000606538BDC8688868009038BD204689
:10126000FFF784FF38BD00001D33000870B504008F
:1012700009D0606A002540B125616561A56294F8D6
:10128000510040B10CE0012070BD6068B0F5827F74
:10129000F4D0E561F2E784F85050204600F044F8BD
:1012A000022084F851002068016821F040010160AB
:1012B000A088218900F4827001F404410843A189C7
:1012C00001F400610843217C01F002010843217D03
:1012D00001F001010843218B01F400710843217FD3
:1012E00001F03801084394F8201001F08001084310
:1012F000218D01F40051084321680860A069042190
:1013000001EA104094F8241001F01001084321680C
:1013100048602068C16921F40061C16165650120F0
:1013200084F85100002070BD2DE9F04186B00646DA
:1013300014216846FFF71FF82F493068884257D1BB
:101340002E480024016841F480510160006800F4D7
:101350008050059029481438016841F0010101606E
:101360000068694600F001000590E020009002202E
:10137000CDE9010403200390052004902048FFF7E5
:10138000B7FA214D1F484FF0C0672860C5E90174C6
:101390004FF48068C5E9034880156C61C5E90640D3
:1013A0002C6228466C62FFF7EFF908B1FFF7BFF82F
:1013B000F564AE631348154D7830E5E80207402028
:1013C000A5E81101114845F81449AC61EC612C62A3
:1013D0006C62FFF7D9F908B1FFF7A9F8B5640022EC
:1013E00011462320AE63FFF7EFFB2320FFF7DEFB60
:1013F00006B0BDE8F08100000030014044380240F2
:1014000000000240106402401C0400207C04002004
:101410002DE9F041044600268068042318B9656868
:10142000B5F5827F0ED094F85050012D13D00127CE
:1014300084F8507094F851C00025BCF1010F0DD014
:10144000022654E084F851302046BDE8F0411346AE
:101450000A4600F055B90220BDE8F08171B16AB1C9
:1014600084F851306565A163A287E28725646564CD
:10147000A586E586B0F5004F02D00BE0012636E0E8
:101480002068016821F0400101602068016821F4B2
:1014900080410160E16C18480864E16C1748C8633A
:1014A000E16C1748C864E06C0565E38F2168A26BA6
:1014B0000C31E06CFFF7D2F938B1606D40F01000EC
:1014C0006065012684F8517011E0206801684906C2
:1014D00003D4016841F0400101602068416841F097
:1014E000200141602068416841F00101416084F8B9
:1014F00050503046B0E700004F3300086333000817
:101500002D330008F0B400248568134604261DB965
:101510004268B2F5827F0DD090F85020012A0FD09A
:10152000012280F8502090F851700022012F0AD03B
:10153000022436E080F85160F0BC0A4600F072B92F
:101540000220F0BC704771B16BB180F85160426508
:1015500081638387C38702638286C2864264C168CF
:1015600019B1124902E001241BE011490164B5F5EB
:10157000004F09D101680B6823F040030B6001683C
:101580000B6823F480430B6001684B6843F06003F1
:101590004B6001680B685B0603D40B6843F04003A3
:1015A0000B6080F850202046CBE70000DD340008B7
:1015B000FD3400082DE9F05F4D4E4E4DB41F3078DC
:1015C0004FF4005A4FF480594FF4804B302817D114
:1015D000012251462846FFF783FA00224946284651
:1015E000FFF77EFA002259462846FFF779FA0022D3
:1015F0004FF400412846FFF773FA9620608120815E
:101600003078312817D10122D1032846FFF768FA34
:10161000002249462846FFF763FA00225146284631
:10162000FFF75EFA002259462846FFF759FA6FF095
:10163000950060812081307832274FF0640832288D
:1016400017D1012249462846FFF74AFA002251469F
:101650002846FFF745FA002259462846FFF740FA88
:1016600000224FF400412846FFF73AFA2781A4F8F8
:101670000A803078332817D1012259462846FFF7CF
:101680002FFA002249462846FFF72AFA002251463F
:101690002846FFF725FA00224FF400412846FFF7BD
:1016A0001FFAA4F8088067813078342817D1002207
:1016B00049462846FFF714FA002251462846FFF70C
:1016C0000FFA002259462846FFF70AFA00224FF483
:1016D00000412846FFF704FA002060812081BDE820
:1016E000F05F0549012201F59070FFF70BBF000084
:1016F00006000020000C024040010020704700005E
:101700002DE9F041044690F85000002601280DD044
:10171000012784F8507094F851000025D4F804C0D3
:1017200001280FD0BCF5827F0AD102E00220BDE87B
:10173000F081D4F808C0BCF1000F01D1042801D019
:10174000022660E049B342B33BB394F85100042849
:1017500002D0052084F8510065652163A386E386E5
:10176000A263A387E3872564656494F85100042885
:1017700015D0E16C264808642648E16CC863E16C2A
:101780002548C864E06C0565E38F2168A26B0C31C5
:10179000E06CFFF763F8E0B906E0012633E0E16CA6
:1017A0001E4808641E48E8E72068416841F00101CE
:1017B0004160A06C0564A06CC563A06CC564A06C9E
:1017C0000565E38E2268216B0C32A06CFFF746F8AA
:1017D00038B1606D40F010006065012684F85170EA
:1017E00011E020680168490603D4016841F0400116
:1017F00001602068416841F0200141602068416833
:1018000041F00201416084F8505030468FE70000FB
:1018100059330008CD3300082D3300084F3300083A
:1018200063330008F0B590F850500024012D0CD01F
:10183000012580F8505090F8515000264768012D3E
:101840000BD0B7F5827F06D101E00220F0BD87689A
:101850000FB9042D01D0022429E0A9B1A2B19BB196
:1018600090F85150042D02D0052580F8515046655E
:1018700001638386C38682638387C387C16829B176
:101880000D4901640D4904E0012410E00C49016494
:101890000C49416401684A6842F0E0024A6001680C
:1018A0000A68520603D40A6842F040020A6080F8CF
:1018B00050602046F0BD000081310008E131000891
:1018C000B1310008113200087047704710B5401E52
:1018D000B0F1807F01D3012010BD4FF0E0246061A2
:1018E0000F21601702F071FA0020A061072020612B
:1018F000002010BD7047704710B590F83C20012AB9
:1019000022D0012280F83C20CA688C6822F4407200
:1019100022434C6822F4806222430C6822F4006265
:1019200022430C6922F4805222434C6922F4005273
:101930002243C969002322F480420A4301684A64B1
:1019400080F83C30002010BD022010BD70B590F82A
:101950003C20012A32D0012480F83C40022280F849
:101960003D2003685A689D6822F070060A68324379
:101970005A60134B02689A4214D0B2F1804F11D0D2
:10198000104B9A420ED0104B9A420BD00F4B9A42FA
:1019900008D00F4B9A4205D00E4B9A4202D00E4B04
:1019A0009A4204D1496825F080031943916080F878
:1019B0003D40002180F83C10084670BD022070BDFB
:1019C000000001400004004000080040000C0040FE
:1019D00000040140004001400018004010B5040020
:1019E00003D094F83D0010B107E0012010BD0020A5
:1019F00084F83C00204600F01FF8022084F83D00E7
:101A0000211D206801F06AFE012084F8460084F858
:101A10003E0084F83F0084F8400084F8410084F8D8
:101A2000420084F8430084F8440084F8450084F8B8
:101A30003D00002010BD000008B500680B49884239
:101A400012D10B48016841F00101016000680022D9
:101A500000F00100009011461920FFF7B5F8BDE82D
:101A600008401920FFF7A2B808BD0000000001409F
:101A70004438024090F83D10012901D00120704700
:101A8000022180F83D100168CA6842F00102CA6074
:101A900000681149884214D0B0F1804F11D00F492D
:101AA00088420ED00E4988420BD00E49884208D099
:101AB0000D49884205D00D49884202D00C49884220
:101AC00004D1816801F00701062903D0016841F0C3
:101AD0000101016000207047000001400004004047
:101AE00000080040000C004000040140004001409C
:101AF0000018004070B5044690F83C00002501280D
:101B000017D0012684F83C60022084F83D0020684C
:101B1000826822F0770222F47F42826008685028AF
:101B200038D00DDC20284FD005DC90B3102811D11F
:101B30004AE0022070BD302846D040280AD13BE060
:101B400060282FD070280DD0B0F5805F03D0B0F59D
:101B5000005F12D0012584F83D60002084F83C002D
:101B6000284670BDCB68D1E90121206801F027FE2D
:101B70002068816841F0770109E0CB68D1E9012153
:101B8000206801F01CFE2068816841F4804181607A
:101B9000E1E719E0CA684968206801F0E5FE5021D4
:101BA000206806E0CA684968206801F0EEFE6021FE
:101BB000206801F00EFECEE7CA684968206801F08F
:101BC000D3FE40212068F4E7226801461046F0E782
:101BD0002DE9F0410D46040003D094F83D0018B102
:101BE00008E00120BDE8F081002084F83C00204698
:101BF00000F040F8022084F83D002068816844F23B
:101C0000070291438160211D206801F067FD226871
:101C100090689169166A2B68AF69034340F20330FC
:101C2000814341EA0721A868EF6908434FF6FC4168
:101C30008843E96840EA0720014328692F6A0001C8
:101C400040EA0730084369686D6926F0AA0646EA4B
:101C50000515294393602268906154F8460B016290
:101C6000012004F81F09E0752076E0762077A07542
:101C70000020B7E72DE9F04F87B0064614216846EB
:101C8000FEF779FB454833680024444910380225A3
:101C9000434A4FF480684FF480594FF4804A4FF420
:101CA000807BB3F1804F33D03E4FBB422DD10B68C8
:101CB00043F008030B60096801F008010591016811
:101CC00041F0010101600068694600F001000590E3
:101CD00003200090CDE901541046CDE90345FEF7FD
:101CE00007FE324D304805F10C0328603804C5E981
:101CF000010483E8100F2C6228466C62FEF744FD55
:101D000008B1FEF714FC3562AE6307B0BDE8F08F92
:101D10000B6843F001030B60096801F001010591B4
:101D2000016841F001010160016801F001010591C4
:101D3000016841F0020101600068012700F0020023
:101D400005904FF400400090CDE90154CDE90347E0
:101D500069461046FEF7CCFD08200090CDE90154FD
:101D6000CDE9034769461248FEF7C2FD114D0E4802
:101D700005F10C03783828604FF0C060C5E9010414
:101D800083E8100F2C6228466C62FEF7FDFC08B158
:101D9000FEF7CDFB3562AE63F562B5E74038024031
:101DA00000000240000C0040A06002403C05002002
:101DB00000040240DC04002070B590F83E60044648
:101DC00090F83F5090F8423090F84320022021B123
:101DD00004290ED0012E1BD114E0012E18D1012BA5
:101DE00016D184F83E0084F84200012200212068C8
:101DF00020E0012D0CD1012A0AD184F83F0084F89B
:101E0000430014E0012D03D1012B01D1012A01D09F
:101E1000012070BD84F83E0084F83F0084F8420041
:101E200084F8430001220021206801F0BBFC01225C
:101E30000421206801F0B6FC2068016841F001012E
:101E40000160002070BD704770B5044600680169EC
:101E50004FF00005C943890715D4C168C9438907F4
:101E600011D4E91E01610120207720688069800774
:101E7000204602D0FFF7E7FF04E000F0C3F8204659
:101E800000F068F9257720680169C943490717D42C
:101E9000C168C943490713D46FF0040101610220EE
:101EA00020772068806910F4407F204602D0FFF739
:101EB000CAFF04E000F0A6F8204600F04BF92577B1
:101EC00020680169C943090716D4C168C9430907D5
:101ED00012D46FF008010161042020772068C069E6
:101EE0008007204602D0FFF7AEFF04E000F08AF83A
:101EF000204600F02FF9257720680169C943C906FB
:101F000017D4C168C943C90613D46FF01001016129
:101F1000082020772068C06910F4407F204602D056
:101F2000FFF791FF04E000F06DF8204600F012F991
:101F3000257720680169C943C90708D1C168C94329
:101F4000C90704D1891E0161204600F069F92068A3
:101F50000169C943090609D4C168C943090605D402
:101F60006FF0800101612046FFF7C4FC2068016921
:101F7000C943490609D4C168C943490605D46FF06D
:101F800040010161204600F065FC20680169C943F9
:101F900089060BD4C168C943890607D46FF02001B4
:101FA00001612046BDE87040FFF7A5BC70BD000090
:101FB00010B586B0044614216846FEF7DCF90E49D8
:101FC0002068884215D10D480021026842F00402C1
:101FD0000260006800F004000590C020009002201C
:101FE000CDE901010320CDE9031069460448FEF75D
:101FF0007FFC06B010BD00000004014030380240F4
:1020000000080240704770B5044690F83C00002676
:102010000D4601280FD0012084F83C006AB1042A43
:102020001DD0082A2FD00C2A3FD00126002084F88A
:102030003C00304670BD022070BD206801F0D2FB2C
:102040002068816941F0080181612068816921F07F
:1020500004018161206881692A69114311E02068C7
:1020600001F0F0FB2068816941F400618161206822
:10207000816921F480618161206881692A6941EA6E
:1020800002218161D2E7206801F012FC2068C16959
:1020900041F00801C1612068C16921F00401C161FA
:1020A0002068C1692A69114311E0206801F034FCFD
:1020B0002068C16941F40061C1612068C16921F4EF
:1020C0008061C1612068C1692A6941EA0221C16158
:1020D000ACE710B5040003D094F83D0010B107E060
:1020E000012010BD002084F83C00204600F01EF8BE
:1020F000022084F83D00211D206801F0EFFA012044
:1021000084F8460084F83E0084F83F0084F84000DC
:1021100084F8410084F8420084F8430084F84400C5
:1021200084F8450084F83D00002010BD08B5006823
:102130000649884208D10648016841F00201016061
:10214000006800F00200009008BD0000000401409B
:10215000443802407047000010B50446022249B1DD
:1021600004290ED0082913D094F84100012816D074
:10217000012010BD94F83E000128F9D184F83E20DA
:102180000FE094F83F000128F2D184F83F2008E0E6
:1021900094F840000128EBD184F8402001E084F855
:1021A00041200122206801F0FDFA16492068164AF4
:1021B000884201D0904203D1436C43F4004343640E
:1021C0002068884213D0B0F1804F10D00F49884268
:1021D0000DD00F4988420AD00E49884207D090425C
:1021E00005D00D49884202D00C49884204D181684B
:1021F00001F00701062903D0016841F001010160E7
:10220000002010BD00000140000401400004004017
:1022100000080040000C0040004001400018004051
:102220002DE9F05FFF492DED108B006888427CD1CD
:10223000DFF8F4A3FD48DFF8F8839AF8001000688F
:10224000DFF8F0930AF1800B9FEDFB8B9FEDFCAB69
:10225000F64E54469036012902D0002966D0CCE2D1
:10226000A169E161406AA061A169E069081A208260
:10227000208A40F6B83110FB01F14FF4BB7091FB9E
:10228000F0F0E08120899FEDF0BB00287ED0B4F90A
:102290000800B4F90E10401A02F0EFF8EC4F41ECD0
:1022A000190B53EC1B2B87ED089B9BED14CB5D4664
:1022B00051EC1C0B02F034F953EC192B02F064FAC8
:1022C00095ED161B53EC112B01F09CFE94ED1E1B9B
:1022D00053EC112B02F024F995ED02DB53EC1D2B8E
:1022E00001F044FF41EC1E0B53EC192B51EC1C0B7D
:1022F00001F088FE94ED1A0B41EC1F0B53EC1D2BE3
:1023000051EC100B02F00CF953EC1F2B02F008F902
:1023100053EC182B02F004F941EC1D0B53EC1C2B71
:1023200051EC190B02F03CFA01E078E22AE194ED5D
:10233000161B53EC112B02F0F3F895ED101B53EC28
:10234000112B01F05FFE53EC1D2B01F05BFE53ECF3
:102350001E2B01F057FE41EC190B85ED129B02F08C
:102360005DF82065206D02F088F853EC192B02F01F
:1023700017FA53EC1A2B02F0D1F902D2206D401C4F
:10238000206595ED140B85ED160B00E0E5E097ED6B
:10239000080B85ED140B206D02F06FF8C5E91001F4
:1023A000206D0028206DB4F90C1010DB884202DD8E
:1023B000B4F90C002065206D3168886300224FF469
:1023C000807145464046FEF78BFB012213E04942EF
:1023D000884203DAB4F90C0040422065206D316870
:1023E000404288635FF001024FF4807145464046E9
:1023F000FEF776FB00224FF400712846FEF770FBD3
:10240000206A6062894848300068406A2062206A19
:10241000616A401AA082A08A40F6B83110FB01F12F
:102420004FF4BB7091FBF0F06082B4F90A00B4F98C
:102430001210401A02F021F8854F41EC190B87ED7C
:102440000A9B608900287DD053EC1B2B9BED1CBBA5
:102450005D4651EC1B0B02F063F853EC192B02F0B4
:1024600093F995ED1E1B53EC112B01F0CBFD95ED6F
:10247000001B53EC112B02F053F895ED02DB53ECEB
:102480001D2B01F073FE41EC1C0B53EC192B51EC8E
:102490001B0B01F0B7FD94ED1C0B41EC1A0B53EC38
:1024A0001D2B51EC100B02F03BF853EC1A2B02F0F1
:1024B00037F853EC182B02F033F841EC1A0B53ECBD
:1024C0001B2B51EC190B02F06BF994ED181B53EC1C
:1024D000112B02F025F895ED181B53EC112B01F090
:1024E00091FD53EC1A2B01F08DFD53EC1C2B01F0E8
:1024F00089FD41EC190B85ED1A9B01F08FFF60659A
:10250000606D01F0BAFF53EC192B02F049F953EC5E
:10251000182B02F003F902D2606D401C606595ED46
:102520001C0B85ED1E0B97ED0A0B85ED1C0B606DEA
:1025300001F0A3FFC5E91801606D0028606DB4F9D2
:102540000C1000E01CE00ADB884202DDB4F90C004C
:102550006065616D3068416342E1002244E74942B1
:10256000884203DAB4F90C004042606562E100BFC2
:102570004FF480714C464846FEF7B2FA002237E12C
:102580000022F5E7406AA061A06AA169451AA56327
:10259000276B616B784205EB4000084401F06DFF4A
:1025A000DFF884B00BF1800B9BED0C1B53EC112B6F
:1025B00001F0B6FF9BED02CB53EC1C2B01F0D6FDD6
:1025C00041EC190B781901F058FF9BED080B41EC19
:1025D0001B0B53EC1C2B51EC100B01F0A1FF53EC27
:1025E0001B2B01F09DFF53EC182B01F099FF41ECE0
:1025F0001B0BE81B01F041FF9BED041B53EC112B5F
:1026000001F08EFFDFF848B09BED001B53EC112B5F
:1026100001F0F8FC53EC1B2B01F0F4FC53EC192BEC
:1026200018E000000000014000000020000300202E
:102630000000024000080240000000000000E03FEF
:10264000000000000000E0BF0000000000000040AB
:102650000001002001F0D6FC41EC190B8BED029B30
:10266000C4E90C5701F0DAFE0546E063206D01F085
:1026700004FFCBE90001284601F0FFFE53EC192BC3
:1026800002F08EF853EC1A2B02F048F8E06B01D2FE
:10269000401CE0632065206D0028206DB4F90C100B
:1026A00010DB884202DDB4F90C002065216D306832
:1026B000816300224FF4807145464046FEF710FAD0
:1026C000012211E04942884203DAB4F90C00404289
:1026D0002065206D41423068816301221102454628
:1026E0004046FEF7FDF900224FF400712846FEF740
:1026F000F7F956480068406A2062E06A216A451A84
:10270000A564276C616C784205EB4000084401F039
:10271000B4FEDFF83C8198ED0E1B53EC112B01F059
:10272000FFFE98ED029B53EC192B01F01FFD41ECCD
:102730001B0B781901F0A1FE98ED0A0B41EC1C0B64
:1027400053EC192B51EC100B01F0EAFE53EC1C2B4F
:1027500001F0E6FE53EC182B01F0E2FE41EC180B01
:10276000E81B01F08AFE98ED061B53EC112B01F0DB
:10277000D7FE9BED041BD84653EC112B01F042FC15
:1027800053EC182B01F03EFC53EC1B2B01F03AFCF0
:1027900041EC180B88ED068BC4E9105701F03EFEA2
:1027A000E06401F06AFE53EC182BC8E9040101F063
:1027B000F7FF53EC1A2B01F0B1FFE06C01D2401C83
:1027C000E0646065606D00282DDB606DB4F90C106D
:1027D000884202DDB4F90C006065606D31684863C1
:1027E00000224FF480714C464846FEF779F90122E9
:1027F0004FF400712046FEF773F99AF8050054462D
:10280000401C8AF80500C00702D0607801F0C0FBC8
:102810006079642803D1A07890B1401EA070BDEC0F
:10282000108BBDE8F09F616DB4F90C00404281420D
:10283000FFF698AE606D316840424863012297E62A
:1028400000202081608101202070E8E748030020FB
:10285000800000207047704770470000F8B501689D
:1028600004460868CA684B6910F00F0F4FF0000566
:1028700059D003F0010602F49077374365D0C107C1
:1028800005D0D10503D5216C41F001012164410738
:1028900005D5D90703D0216C41F0020121648107DD
:1028A00005D5D90703D0216C41F00401216401074B
:1028B00007D502F02001314303D0216C41F008011B
:1028C0002164216C00293AD0800604D5900602D5F7
:1028D000204601F049F920684069216CC0F380105E
:1028E000090700D460B3204601F009F92068406967
:1028F000400621D52068143050E8001F21F0400127
:1029000040E80012002AF5D1A06BA8B16C4901651E
:10291000A06BFDF757FE002811D0A06B016D01B030
:10292000BDE8F040084783060FD593060DD5204635
:10293000BDE8F84001F018B92046FFF78DFFF8BD5B
:102940002046FFF789FF2564F8BD266B2023012E62
:1029500079D1C60677D5D60675D50868486800903F
:102960004869400640D5A16B086840680004000C27
:10297000EAD0A28D8242E7D9E085C869B0F5807FB0
:102980002DD020680C3050E8001F21F4807140E801
:102990000012002AF5D12068143050E8001F21F001
:1029A000010140E80012002AF5D12068143050E8F7
:1029B000001F21F0400140E80012002AF5D184F800
:1029C0003E30256320680C3050E8001F21F01001D4
:1029D00040E80012002AF5D1A06BFDF7AAFDA08DFA
:1029E000E18D401A81B229E0A08DE18D401A81B2BB
:1029F000E08D0028A8D00029A6D020680C3050E82F
:102A0000002F22F4907240E80026002EF5D12068B5
:102A1000143050E8002F22F0010240E80026002E7A
:102A2000F5D184F83E30256320680C3050E8002F43
:102A300022F0100240E80023002BF5D12046FFF7DA
:102A40000AFFF8BDFFE705062BD5150629D594F832
:102A50003D002128F5D1A068B0F5805F01D1206943
:102A6000B0B1206A411C2162216800784860E08C86
:102A7000401E0004000CE084E3D12068C16821F00E
:102A80008001C1602068C16841F04001C160D8E7A1
:102A9000206A0088C0F308004860206A801C206219
:102AA000E5E74006CDD55006CBD5CA68204622F0D2
:102AB0004002CA6084F83D3000F034F9C1E70000FC
:102AC000BD39000870B5040004D094F83D0000251D
:102AD00010B106E0012070BD84F83C50204600F0A3
:102AE00023F8242084F83D002068C16821F40051B7
:102AF000C160204601F098F82068016921F49041F6
:102B000001612068416921F02A0141612068C168A2
:102B100041F40051C1602564202084F83D0084F810
:102B20003E00002070BD00002DE9F04186B0064651
:102B300014216846FDF71FFC2F493068884257D1A1
:102B40002E480024016841F400210160006800F46F
:102B50000020059029481038016841F00401016007
:102B60000068694600F0040005904FF44060009052
:102B70000220CDE90104032003900820049020489E
:102B8000FDF7B6FE204D1F484FF4806847052860CA
:102B9000C5E90174C5E9034880156C61C5E90640C3
:102BA0002C6228466C62FDF7EFFD08B1FDF7BFFC13
:102BB000B563AE631348154D3030E5E80207402099
:102BC000A5E81101114845F81449AC61EC612C628B
:102BD0006C62FDF7D9FD08B1FDF7A9FC7563002211
:102BE00011463420AE63FDF7EFFF3420FDF7DEFF22
:102BF00006B0BDE8F0810000004C004040380240C3
:102C000000080240406002409C050020FC050020B6
:102C100090F83E30202B0ED159B152B190F83C3093
:102C2000012B08D0012380F83C300023036301F01E
:102C300081B801207047022070470000124810B58B
:102C400001218170114BC178C2795A54491CC9B213
:102C5000C1700079814216D10D4C0122110320462A
:102C6000FDF73EFF012251032046FDF739FF012207
:102C700091032046FDF734FF20460122BDE81040B5
:102C8000D103FDF72DBF10BD000000204001002042
:102C9000000C02407047000070B5044690F83D00FB
:102CA000202836D191B38AB394F83C00012830D063
:102CB000012084F83C002162A284E284002525647E
:102CC000212084F83D00636B1348D863636B13487D
:102CD0001864636B1248D864606B134605652668F8
:102CE000606B321DFDF7BAFD21686FF0400008608F
:102CF00084F83C502068143050E8001F41F08001F7
:102D000040E80012002AF5D1002070BDFFE7012045
:102D1000FBE70220F9E70000B33A0008F53A0008A3
:102D2000CD39000870477047FEE700002DE9F043F9
:102D300004461E484FF0FF3547184FF000096D1C40
:102D4000284601F013F994FBF0F00028F7D1002C8D
:102D50000BD007DA4FF02D0007F8010BC4F1000487
:102D60004FF001094FF0000619E04FF001054FF058
:102D7000000600BF06F1010001F0F8F894FBF0F145
:102D800000FB1148304601F0F1F898FBF0F079199A
:102D9000891B303001F8010CA4EB0804761CAE420C
:102DA000E8DB05EB0900BDE8F083000040020020ED
:102DB000214808B5016841F400110160016801F47F
:102DC00000110091016841F4800101600068002257
:102DD00000F48000009011460C20FDF7F5FE0C2059
:102DE000FDF7E4FE002211460D20FDF7EDFE0D205B
:102DF000FDF7DCFE002211460F20FDF7E5FE0F2057
:102E0000FDF7D4FE002211461120FDF7DDFE112052
:102E1000FDF7CCFE002211463820FDF7D5FE382004
:102E2000FDF7C4FE002211464420FDF7CDFEBDE8AB
:102E300008404420FDF7BABE303802402DE9F04387
:102E400087B014216846FDF796FA2F4800240168E0
:102E500041F080010160016801F080010591016885
:102E600041F001010160016801F001010591016873
:102E700041F008010160016801F008010591016855
:102E800041F004010160016801F00401059101684D
:102E900041F00201016000681C4F00F002004FF495
:102EA00070450590002229463846FDF719FEDFF8E7
:102EB00060804FF44076002231464046FDF710FE18
:102EC000DFF85090002231464846FDF709FE009594
:102ED0000125CDE90154694638460394FDF708FD04
:102EE0000096CDE90154694640460394FDF700FD84
:102EF0000096CDE90154694648460394FDF7F8FC75
:102F000007B0BDE8F083000030380240000C0240FA
:102F100000080240000002400D4810B50B49016056
:102F2000002141608160C1604FF400720161C0E91D
:102F300005120162416281620A21C162FEF796F9BF
:102F4000002801D072B6FEE710BD0000003001403D
:102F50006002002010B586B0002418480094019447
:102F600002940394049414490594016040F2F3110F
:102F7000C0E9011440F28F61C0E903144461846127
:102F8000FEF72CFD08B172B6FEE74FF480500090BA
:102F900069460A48FEF7AEFD08B172B6FEE7049432
:102FA00004A906480594FEF7D1FC002801D072B6AA
:102FB000FEE706B010BD000000000140B80200208E
:102FC00010B58CB024216846FDF7D5F900241548CA
:102FD00009944FF080410A94C0E90014611EC0E9D1
:102FE0000241046184610320CDE900040120CDE9A0
:102FF00002040494CDE90540079469460948089401
:10300000FEF7E6FD08B172B6FEE7099409A9054886
:103010000A94FEF79BFC002801D072B6FEE70CB0C4
:1030200010BD00000003002010B58CB024216846BC
:10303000FDF7A1F900241548099413490A94C0E941
:103040000014611EC0E90241046184610320CDE9DE
:1030500000040120CDE902040494CDE90540079461
:1030600069460A480894FEF7B3FD08B172B6FEE758
:10307000099409A905480A94FEF768FC002801D0C4
:1030800072B6FEE70CB010BD000C004048030020F3
:1030900010B592B000240F941C2168461094FDF7DF
:1030A0006AF9202107A8FDF766F924482249016042
:1030B0005321C0E9011440F2E731C0E9031444612F
:1030C0008461FFF706F808B172B6FEE70F940FA906
:1030D0001A481094FEF73AFC08B172B6FEE7602079
:1030E000CDE90004029403940494059400226946F7
:1030F00012480694FEF787FF08B172B6FEE7042275
:1031000069460E48FEF77FFF08B172B6FEE70794E6
:10311000089409944FF400500A94CDE90B4007A994
:1031200006480E94FEF7E8FB08B172B6FEE70348C6
:10313000FEF73EFF12B010BD0004014090030020D6
:10314000FEE7FEE77047000010B5084C2079401CF0
:10315000207102E00120FDF7B9FB2079E178884277
:10316000F8D003482179405C10BD00000000002029
:10317000400100200148FDF7FBBF00006002002075
:103180000168C968826B1180816B891C8163C18F62
:10319000491EC187C18F002909D101684A6822F000
:1031A00040024A60C18E002901D100F049B8704741
:1031B0000168097B826B1170816B491C8163C18F2F
:1031C000491EC187C18F002909D101684A6822F0D0
:1031D00060024A60C18E002901D100F031B8704709
:1031E000016B02680988D160016B891C0163C18E83
:1031F000491EC186C18E002909D101684A6822F0A2
:1032000080024A60C18F002901D100F019B87047CF
:10321000016B026809781173016B491C0163C18E4F
:10322000491EC186C18E002909D101684A6822F071
:1032300080024A60C18F002901D100F001B87047B7
:1032400038B50446214845F6C0510068B0FBF1F09E
:10325000642148430090FDF749FC0246206841681C
:1032600021F020014160009888B1401E0090206844
:1032700080688007F7D56421204600F003F918B173
:10328000606D40F020006065A06828B108E0606DC6
:1032900040F020006065EEE72068C168806800901B
:1032A000616D012029B184F851002046FDF75EFFD1
:1032B00038BD94F8511084F851000429204602D0FA
:1032C000FEF702FB38BDFEF775F938BD300100206E
:1032D00038B504460068416821F060014160FDF79F
:1032E00005FC02466421204600F09DF818B1606D8F
:1032F00040F020006065A06818B92068C168806847
:103300000090012084F85100606D0028204602D012
:10331000FDF72CFF38BDFEF74DF938BD10B5806BB9
:103320000021C187C186FDF721FF10BD10B5806B5C
:1033300001684A6822F003024A60416D41F01001C1
:103340004165012180F85110FDF710FF10BD10B547
:10335000806BFEF7D3F910BD10B5806BFEF7B5FAA0
:1033600010BD70B50546846BFDF7C0FB02462868AA
:103370000068C00526D42068416821F02001416022
:10338000A06818B96068B0F5827F16D020684168DF
:1033900021F0010141606421204600F044F808B1A9
:1033A000202060650020E087012084F85100606DD6
:1033B00040B12046FDF7DAFE70BD2068416821F07B
:1033C0000301E7E72046FEF7F5F870BD70B5054646
:1033D000846BFDF78BFB024628680068C0051ED48D
:1033E0002068416821F0200141606421204600F0FE
:1033F00049F818B1606D40F02000606520684168B0
:1034000021F0030141600020E086E087012084F87C
:103410005100606D18B12046FDF7A8FE70BD204632
:10342000FEF752FA70BDF8B5044640684FF4827357
:10343000984221D1A0684FF48065B0F5004F01D0CB
:10344000A8420AD12068066826F040060660606837
:10345000984211D1A068A8420ED000920B460022DB
:103460008021204600F05AF8002804D0606D40F01A
:10347000200060650320F8BD00920B460022012168
:10348000EFE7000038B504461248134B0068B0FB64
:10349000F3F04FF47A73584300906068B0F5827F80
:1034A0000DD10B46009200228021204600F036F814
:1034B00070B1606D40F020006065032038BD009859
:1034C00030B1401E009020688068C0430006F6D5E9
:1034D000002038BD3001002000366E010168C96847
:1034E000826B1180816B891C8163C18F491EC187EA
:1034F000C18F002901D1FFF7EBBE70470168097B3E
:10350000826B1170816B491C8163C18F491EC18719
:10351000C18F002901D1FFF7DBBE70472DE9F843C9
:103520001E46914688460446089DFDF7DFFA401B7B
:10353000351AFDF7DBFA074625480068C0F3CB30A3
:10354000684338E0701C37D0FDF7D0FAC01BA842A2
:1035500003D215B1009860B32CE02068416821F0D7
:10356000E00141606068B0F5827F0BD1A068B0F5E2
:10357000004F02D0B0F5806F04D12068016821F0BF
:1035800040010160A06AB0F5005F09D120680168C0
:1035900021F4005101602068016841F4005101608C
:1035A000012084F85100002084F850000320BDE879
:1035B000F8830025401E00902068816838EA0100E9
:1035C00004D000214945BDD10020F0E70121F9E7F1
:1035D000300100207047F0B50746007800240E4601
:1035E0002D280DD0002508E0701B401E00F0BEFC09
:1035F000795D303901FB00446D1CB542F4DB0EE00F
:10360000012509E0701B401E00F0B0FC0146785D0A
:10361000303800FB01446D1CB542F3DB64422046A8
:10362000F0BDFDF769BA000030B593B030216846AF
:10363000FCF7A1FE14210CA8FCF79DFE1E480025F6
:10364000016841F080510160006800F080501190E5
:103650001A48016841F4804101600068022400F4C6
:103660008040119001200090000401908001CDE97C
:103670000640082008904FF4A870CDE90904042002
:103680000B906846FDF7BCFB08B172B6FEE70CA9CB
:103690000F2081E831004FF4A0500F904FF480507C
:1036A000109005210CA8FDF7C1FA002801D072B6D0
:1036B000FEE713B030BD000040380240007000400B
:1036C0000248016841F470010160704788ED00E034
:1036D0000148FEF7B9BB0000B8020020F0B502684F
:1036E000254C264D264E274F274B4FF0804CA042AD
:1036F00009D0604507D0A84205D0B04203D0B842F7
:1037000001D0984204D122F0700E4A6842EA0E02BB
:10371000A0421BD0604519D0A84217D0B04215D0A6
:10372000B84213D0984211D0184DA8420ED0184D6F
:10373000A8420BD0174DA84208D0174DA84205D07B
:10374000164DA84202D0164DA84203D122F440756E
:10375000CA682A434D6922F080022A4302608A68BF
:10376000C2620A688262A04201D0984201D109690E
:10377000016301214161F0BD0000014000040040EF
:1037800000080040000C00400004014000400140DF
:10379000004401400048014000180040001C004067
:1037A0000020004010B501F01F030121046A994078
:1037B0008C430462016A9A401143016210BD10B546
:1037C000846842EA032224F47F440A43224382604D
:1037D00010BD826822F070020A4342F00701816046
:1037E00070470000F0B5026A22F001020262036A2B
:1037F00042688469124E24F073050C682C4323F050
:1038000002058B682B430D4DA84201D0B04205D173
:1038100023F00807CB683B4323F00403A84201D000
:10382000B04205D14D6922F4407215438A692A439A
:1038300042608461496841630362F0BD0000014059
:1038400000040140F0B5026A22F010020262026A2E
:10385000436884690D6824F4E64444EA05248D68CD
:1038600022F0200242EA05120F4D104EA84201D06C
:10387000B04206D1CF6822F0800242EA071222F05D
:103880004002A84201D0B04207D14D6923F4406301
:1038900043EA85038D6943EA85034360846149688F
:1038A00081630262F0BD000000000140000401409D
:1038B000F0B5026A22F480720262026A4368C46947
:1038C00022F4007224F073050C68124E2C438D68AC
:1038D00042EA05220E4DA84201D0B04206D1CF687F
:1038E00022F4006242EA072222F48062A84201D058
:1038F000B04207D14D6923F4405343EA05138D6963
:1039000043EA05134360C4614968C1630262F0BDC4
:10391000000001400004014030B5026A22F48052E8
:103920000262046A4268C3690D6823F4E64343EA0D
:1039300005238D6824F4005444EA0534084DA84258
:1039400002D0084DA84204D14D6922F4804242EAD7
:1039500085124260C36149680164046230BD0000A1
:10396000000001400004014010B5036A046A24F01D
:1039700001040462846924F0F00444EA021423F090
:103980000A020A438461026210BD10B5036A23F083
:10399000100303628369046A23F4704343EA02322A
:1039A00024F0A00343EA01118261016210BD00000E
:1039B0000148FEF753BF0000D803002010B5806B0C
:1039C0000021C185C184FEF747FF10BD70B5846B2F
:1039D0002068406994F83D10C0F3C01000252129EB
:1039E00004D118B1E584204600F0B0F820684069A1
:1039F00094F83E10C0F38010222904D118B1E58557
:103A0000204600F07CF8206C40F010002064204636
:103A1000FEF722FF70BD10B50146806B096809688A
:103A2000C9052FD40021C18501680C3151E8002F50
:103A300022F4807241E80023002BF5D10168143193
:103A400051E8002F22F0010241E80023002BF5D1BC
:103A50000168143151E8002F22F0400241E80023B0
:103A6000002BF5D1202180F83E10016B012909D1EE
:103A700001680C3151E8002F22F0100241E80023C8
:103A8000002BF5D1016B012902D0FFF7D7F810BD4B
:103A9000818DFEF7E0FE10BD10B5806B016B012932
:103AA00002D0FFF7F7F810BD818D4908FEF7D3FE6D
:103AB00010BD10B50146806B09680968C90516D4A8
:103AC0000021C1840168143151E8002F22F08002E6
:103AD00041E80023002BF5D101680C3151E8002F9B
:103AE00042F0400241E80023002BF5D110BDFFF762
:103AF00019F910BD10B5806BFFF715F910BD0168FD
:103B00000C3151E8002F22F4907241E80023002B81
:103B1000F5D10168143151E8002F22F0010241E88B
:103B20000023002BF5D1016B012909D101680C316B
:103B300051E8002F22F0100241E80023002BF5D1BC
:103B4000202180F83E1000210163704701680C318C
:103B500051E8002F22F0C00241E80023002BF5D1EC
:103B6000202180F83D10704708B590F83E102229BA
:103B700001D0022008BD82684FF480539A4201D1DF
:103B8000016921B1816A9A421BD04AB10AE00268F8
:103B9000816A5268C2F308020A80816A891C08E0BF
:103BA000026972B10268526802F07F020A70816A8B
:103BB000491C8162C18D491E0904090CC18503D0CD
:103BC00019E002685268F1E70168CA6822F0200231
:103BD000CA600168CA6822F48072CA6001684A69D2
:103BE00022F001024A61202180F83E10016B012978
:103BF00003D0FFF723F8002008BD0021016301680E
:103C00000C3151E8002F22F0100241E80023002B74
:103C1000F5D101680A68D20602D50A6849680091A0
:103C2000818DFEF718FEE6E770B50446006801696D
:103C3000E26821F44051114301612169A068E26901
:103C400008436169114308432168CA6849F20C635B
:103C50009A430243CA6020684169A26921F4407115
:103C60001143416131492068884202D0304988427D
:103C700002D1FDF785F801E0FDF772F8E269002353
:103C8000192164253226B2F5004F626828D0A0FBC6
:103C90000101930F9200FCF7F7FA0146B0FBF5F033
:103CA0006FF01802504301EB800006EB0010B0FBF0
:103CB000F5F000F0F002B1FBF5F002EB0012B1FB01
:103CC000F5F06FF01803584301EB800006EB00108D
:103CD000B0FBF5F000F00F0021681044886070BD63
:103CE000A0FB010192185B41FCF7CEFA0146B0FB44
:103CF000F5F00201B1FBF5F06FF01803584301EB4A
:103D0000800006EBC000B0FBF5F000F0F80002EB1D
:103D10004002B1FBF5F0584301EB800006EBC00018
:103D2000B0FBF5F000F00700D6E7000000100140FE
:103D30000014014038B5816282850025134604468F
:103D40000564222084F83E00A26B1C48D063A26B5D
:103D50001B481064A26B1B48D064A06B0A46056523
:103D60002168A06B091DFCF779FD20680168406897
:103D7000009084F83C50206948B120680C3050E82D
:103D8000001F41F4807140E80012002AF5D120683C
:103D9000143050E8001F41F0010140E80012002AF1
:103DA000F5D12068143050E8001F41F0400140E890
:103DB0000012002AF5D1002038BD0000173A000893
:103DC000993A0008CD390008FEE70907090E0028D6
:103DD00004DB00F1E02080F80014704700F00F00D1
:103DE00000F1E02080F8141D704700001CB5FCF7BE
:103DF0008BFEFFF719FCFFF721F8FEF7D9FFFFF75D
:103E0000DFF8FFF711F9FFF743F9FFF7A3F854487C
:103E10005249002501604FF4E131C0E901150C2140
:103E2000C560C0E904518561C561FEF74BFE08B16C
:103E300072B6FEE7FFF770F849480421D838FDF75D
:103E4000BBFF474804219038FDF7B6FF44480021E6
:103E50004838FEF781F9424804214838FEF77CF9DA
:103E60004048FDF707FE3F4801223F495838FDF71B
:103E7000CFFA3D490122491C3948FEF7C9FE3A4CA8
:103E8000E84601AF4FF00109B4F10604FFF75CF911
:103E900000262128FAD1FFF757F956280FD004DC65
:103EA0004F2854D05028F1D12AE0702848D07628E5
:103EB000ECD1FFF749F92328E8D16570E6E7FFF771
:103EC00043F93B2805D0212803D008F80600761CCA
:103ED000F5E7F1B26846FFF77EFB2081002601E09E
:103EE000B855761CFFF730F9232801D02128F7D1E7
:103EF000F1B201A8FFF76FFB608184F80090C5E77D
:103F0000FFF722F93B2805D0212803D008F8060046
:103F1000761CF5E7F1B26846FFF75DFBA06200266C
:103F200001E0B855761CFFF70FF9232801D02128AE
:103F3000F7D1F1B201A8FFF74EFBE0622570A5E7CB
:103F4000FFF702F92328A1D184F801909EE7FFF73B
:103F5000FBF823289AD10220607097E7004C0040BC
:103F6000D8030020B80200200600002000B501217F
:103F7000002803D004DA4FF0000000BD084600BD61
:103F8000A0F10100FFF7F2FF00EB8000400000BD50
:103F90002DE9F041194C21213B25194E2170232791
:103FA000D8B1012828D150206070A570B0690321D4
:103FB000B069FEF7BBFEC01C2554451C2946306A7B
:103FC000FEF7B4FE28440D492754BDE8F041401CDB
:103FD00082B201F5CC70FEF75FBE56206070A5700E
:103FE0000321B6F90E00FEF7A1FEC01C2554451CA6
:103FF0002946B6F91200E3E7BDE8F081400200204F
:104000000000002010B591EA030F48BF83F0004381
:1040100000F1CE83841A71EB030C05D2121943EB25
:104020000C03001B61EB0C01DFF824E14FEA115493
:10403000A4EB135C1EEA430F18BF9EEA445F73D0E3
:1040400023EA0E03DCF1200E21EA045143F480132D
:1040500032D322FA0CFE10EB0E0023FA0CFE41EBD9
:104060000E01CCF1200E03FA0EFE10EB0E0051F102
:104070000001B1F5801FCCF1200E32D201EB0451CA
:1040800012FA0EF2BDE8104058BF7047401C38BF0E
:104090005FEA420218BF7047002814BF20F00100F9
:1040A00041F100014FEA410313F5001F38BF70478B
:1040B000A1F1C04100F02CBB012A43EB0302ACF19B
:1040C000200CDCF11F0E32BF4FF0000E23FA0CF370
:1040D00010EB030041EB0451B4EB115FD0D0A1EB26
:1040E000045101F5801149085FEA300001EB0451E9
:1040F0000ED350F1000038BF12FA0EFE08D1BDE811
:104100001040C9E7401C38BF5FEA4202CAD1C3E78A
:10411000BDE810404FEA410313F5001F38BF704758
:10412000A1F1C04100F0F4BA9EEA445F08D011EA60
:104130005E0FBDE8104004BF01F000410020704751
:10414000BDE8104070B500F095FA00BF64FBBE3EBC
:104150000000E0FF491058BFC1F140415B1058BF5B
:10416000C3F140438B42EFF3008070472DE9C0411B
:1041700030B4DFF8A0C23CEA111418BF3CEA1314B3
:1041800000F0EC8081EA03051CEA111444EAD574BE
:1041900018BF1CEA131500F0C780A4EB05044FF00C
:1041A000004545EAC12145EAC32341EA505143EAAB
:1041B000525304F17F74994204F500344FEAC02051
:1041C0004FEAC22208BF904200F09C804FEA13657C
:1041D0000FF24016765D4FEA134506FB05F7C7F16F
:1041E000807706FB07F74FEAD737A7FB03687642CD
:1041F000C8F58038A7FB06CE38BFA8F1010807FB39
:1042000008E64FF0000EA6FB028CE6FB03CEDCF1C5
:10421000000CCEF1004E38BFAEF1010EA6FB0C58DB
:104220004FF000074FF00005E6FB0E87A1FB08C624
:10423000A0FB07CE16EB0E0645F10005E1FB076576
:1042400015F1E04E7EBFA4F580345FEA46066D416D
:1042500016F1800745F100054FEA17274FEA066679
:1042600047EA0567A6F1DE46B6F1805F4FEA1525FD
:104270001FD9384624F0010C05EBC471BCF1FE6F68
:1042800001EB0C1102D8F0BCBDE8008124425CBFF8
:1042900001F5801E9EEAC47F02D4F0BCBDE8008117
:1042A000244238D4F0BCA1F1C041BDE8004100F087
:1042B0002FBA4FEAD22242EA43524FEAD323A7FB56
:1042C00002864FEAD02040EA415007FB03661EEA0F
:1042D0000E0F4FEAD12105FB026658BFA6EB005630
:1042E000B6EB00564FEA520E4EEAC37E18EB0E0EA6
:1042F00056EB530EBDD518EB02085E417F1C55F1FD
:104300000005B6E74FF480154FF000074FF00006A8
:104310004FF00008ADE7F0BC4FF0000001F1C041E4
:1043200001F00041BDE8008111EA0C1F0CEA1315F1
:1043300000D00CE013EA0C1F00F025804FF00000C5
:10434000F0BC81EA030101F00041BDE80081F0BC4E
:10435000BDE8004181EA030100F0DAB9F0BCBDE834
:10436000004170B500F086F9097EFC3E00F007B808
:1043700081EA03014FF0000001F00041704781EA3B
:10438000030100F0C5B9F0BCBDE800414FF00000EA
:1043900021497047FFFDFBF9F7F5F4F2F0EEEDEB84
:1043A000E9E8E6E4E3E1E0DEDDDBDAD8D7D5D4D333
:1043B000D1D0CFCDCCCBCAC8C7C6C5C4C2C1C0BF7F
:1043C000BEBDBCBBBAB9B8B7B6B5B4B3B2B1B0AF85
:1043D000AEADACABAAA9A8A8A7A6A5A4A3A3A2A169
:1043E000A09F9F9E9D9C9C9B9A9999989797969524
:1043F00095949393929191908F8F8E8E8D8C8C8BC0
:104400008B8A898988888787868585848483838247
:10441000828181800000FF070000F87F4FEA41039E
:104420004FEA5353A3F58063D3F11E03C8BFD3F102
:10443000210C0CDD4FF0004242EAC12242EA505208
:1044400032FA03FC8CEAE17CACEBE1707047102B94
:10445000C4BF0020704703F5787CBCF1FF3F04D057
:104460006FF0004282EA2100704770B500F002F957
:104470004992248000207047F2E710F0004248BFC4
:104480004042B0FA80F310FA03F10AD0C3F11D03E1
:1044900003F580634FEA415002EB035202EBD12156
:1044A00070474FF00000704751EA030C17D41CF519
:1044B000801F58BFBCF5801F00F10680994218BFCD
:1044C000704708BF9042704707D711F5801F58BF4B
:1044D00013F5801F19D499427047894270471CF523
:1044E000801F08D5BCF5801FF7D58B4218BF7047D9
:1044F00008BF824270474FF4001C1CEB410F38BFCD
:104500001CEB430F01D28B42704770B500F0B2F83C
:10451000922449004FF000514FF08053FFF71ABE2C
:10452000DFF848C170B51CEA111E1EBF1CEA131546
:104530009EEA0C0F95EA0C0F00F06F8081EA0304ED
:1045400023EA4C134EEAD47E21EA4C1141F4801147
:1045500043F48013AE44A1FB024CA0FB0365AEF113
:104560007F7E361955EB0C05A1FB034C4CF1000383
:10457000A0FB021C16EB0C06654153F10003094237
:1045800018BF46F0010613F4007F0BD14FEA033148
:104590004FEA0530340341EA155140EA16506FF0F6
:1045A00003020AE04FEAC3214FEAC520F40241EAC0
:1045B000555140EA56506FF0020202EB2E4201EBD9
:1045C000025585EACE710AD05FEA440C18BF24F088
:1045D000004450F1000041F1000120EAD47040F2A3
:1045E000FE7C624500D270BDA84214BF4FF08044EB
:1045F0004FF04044002E08BF0024BEF1806FA8BFDA
:10460000A1F1C041BDE8704080F282804FF000000F
:1046100001F1C04101F0004170479EEA0C0F0CEA25
:10462000131518BF95EA0C0F06D04FF0000081EA71
:10463000030E0EF0004170BD00F01CF88900013E31
:1046400000F007B800F009B84FEA430C5FEA5C5C81
:1046500008D081EA030100F05BB84FEA410C5FEA41
:104660005C5CF6D14FF00000014970470000FF0785
:104670000000F87F0EF1020E2EF0030E5EF8046BC0
:10468000364205D4012A43EB030515F5001F12D865
:10469000012841EB010C1CF5001F0CD80ED14FEA8C
:1046A000D17C15F5001F0CEB4C0C0CF1020C08BF73
:1046B0004CEBD37C04E04FF0080C01E04FEAD37CD4
:1046C0000CEB4C0526FA05F606F00706B6F1040CCD
:1046D00006D20EEB860CBDE870404CF0010C604732
:1046E000DFE80CF0090B02024FF000414FF0000030
:1046F000A1F5002170BD19461046012851EB0104B7
:1047000018BFD4F5001484BF002001F0004170BD33
:104710000808A0F500114FEA3101704753EA010C77
:1047200017D41CF5801F58BFBCF5801F00F1068010
:104730008B4218BF704708BF8242704707D713F5F6
:10474000801F58BF11F5801F19D48B4270479B42C0
:1047500070471CF5801F08D5BCF5801FF7D599421E
:1047600018BF704708BF904270474FF4001C1CEB05
:10477000430F38BF1CEB410F01D2994270470FB471
:104780000CBC03BCFFF7C1BE91EA030F10B581F06A
:1047900000413FF53FAC83F0004300F009B8000052
:1047A00010B591EA030F48BF83F000433FF532ACE8
:1047B000841A71EB030C07D212198CF0004C43EBF6
:1047C0000C03001B61EB0C01DFF8A4E14FEA11546C
:1047D000A4EB135C1EEA430F18BF9EEA445F00F08F
:1047E000B08023EA6E03524221EA0451C3EB6E0308
:1047F00038BF5B1EDCF1200E25D322FA0CFE10EB35
:104800000E0043FA0CFE41EB0E01CCF1200E03FA30
:104810000EFE10EB0E0051F10001CCF1200E29D458
:1048200012FA0EF201EB0451BDE8104058BF704778
:10483000401C1CBFB2F1004F704700280CBF491C40
:1048400020F00100704712EB020E43EB030218BF89
:104850004FF0010E4EEA4202ACF1200CDCF11E0ECC
:1048600054D943FA0CFE10EB0E0051F1FF31CCF19C
:104870001E0ED5D50EF1010E12FA0EFE404141EB8F
:10488000010101EB445C5FEA5C5C10D910EBDE7067
:1048900001EB045138BFBEF1004FBDE8104018BF16
:1048A000704700280CBF491C20F00100704730D22F
:1048B0004FEAD42C11F5001124F400641BD0B1FA96
:1048C00081F20B3AA41AA41ED2F12003914030FACF
:1048D00003F31943904001EBCC71002C01EB045120
:1048E000BDE81040A8BF704701F1C0414FF0000083
:1048F00001F000417047B0FA80F310FA03F100D1E3
:1049000010BDE41A173C4805C90AE4E701EB04515D
:1049100010BD491001EB0451BDE810404FEA3000D2
:1049200002E04FF0000170474A0008BF0042F8D093
:10493000B2F5001F28BF704701F000414FF00000A2
:1049400070479EEA445F07D011EA5E0FBDE8104051
:1049500004BF002100207047BDE8104070B5FFF78C
:1049600089FE00BF40DFF63E83F0004110467047ED
:104970000000E0FF4FF04070E1EE100A70470000C9
:1049800000000000000001020304060708090000FF
:1049900000000102030400061016000610160000B5
:1049A000C04900080000002040010000C4010008C8
:1049B000F849000840010020800B000000020008B8
:1049C00033010282FF0351E703732C40732E4073BF
:1049D000694003116940797B14AE47E17A743F73F3
:1049E0002E40733340734E4083344072400372084C
:0849F000404524F4000182108F
:040000050800018965
:00000001FF
